:100000000C94E6050C9403060C9403060C9403066A
:100010000C9403060C9403060C9403060C949D1098
:100020000C9403060C9403060C9403060C9403062C
:100030000C9403060C9403060C9403060C9403061C
:100040000C9403060C9403060C9403060C9403060C
:100050000C9403060C9403060C9403060C940306FC
:100060000C9403060C940306F80FFA0FFD0F011011
:10007000031007101210121012101210121012108A
:100080000A100D101010436F6D706F6E656E742046
:100090005465737465720050726F62696E672E2EBC
:1000A0002E0054696D656F7574004E6F20636F6D1F
:1000B000706F6E656E7400666F756E642100646F9C
:1000C0006E65210053656C6563740054657374003C
:1000D00041646A7573746D656E7400536176650072
:1000E0004C6F61640053686F772056616C7565735F
:1000F0000052656D6F7665004372656174650053EB
:10010000686F72742043697263756974210042617B
:1001100074746572793F004572726F722100457880
:10012000697400436865636B73756D00424A5400DF
:100130005343520054726961630050555400427930
:10014000652100487A00436F6E74726173740049D0
:1001500052206465746563746F72004F70746F2011
:10016000436F75706C6572004E6F6E65004354523C
:1001700000537461727400554A540076312E343540
:100180006D004D4F5300464554002D636800656E69
:10019000682E006465702E0049474254004367731F
:1001A000004E504E00504E50006846450056626565
:1001B00000565F4754004963656F00566600430070
:1001C00056746800495F52005654005672656600C6
:1001D00052682D0052682B0052692D0052692B0085
:1001E0002B526C2D002B52682D00313220313320E0
:1001F0003233004330005230005663630041436F96
:100200006D70002331002332004964737300495F2D
:100210006C0052647300565F4753286F666629006E
:100220004E45430053495243004A5643004B6173C5
:10023000004D6174004D6F740050726F7400524332
:100240002D350052432D360053616D7300536861A4
:10025000727000496600745F6F6E00745F6F66664F
:1002600000525F4242002D032D002D012D002D0272
:100270002D002D06072D0066706E056D006B4DEE8E
:1002800059CB52AD4C6047BC42A43E003BBF37D077
:10029000342932C02F8C2D872BAC29F5275E26E51B
:1002A0002485233D220A21EA1FDC1EDD1DED1C0AE8
:1002B0001C331B681AA719F01841189B17FD166507
:1002C00016D5154A15C6144714CD135813E7127BDB
:1002D000121312AE114E11F0100000BA038703582A
:1002E000032E030703E402C302A402880281115310
:1002F0000F940D260CF40AF00911095008A6070FF7
:100300000789061006A3053F05E40491044304FC95
:1003100003B9037A033F030703D1029E026D023E35
:10032000020F02E101B20182014E010F01041040EF
:10033000082080010204000102000000000000000B
:1003400000087F3E1C087F7F08087F7F081C3E7FD7
:1003500008087F7F00007F7F084C5E7202725E4C4F
:1003600000C07E3E201E3E2000087F4141414141A9
:10037000414141414141417F087D7E1311137E7D02
:10038000001D3E6341633E1D003F7F4140417F3F72
:1003900000FFFF4949497F3600317A4A4A7E3D4095
:1003A00000183D6642663D18003E7E4140217E7E3B
:1003B0000000000205020000000000000000000034
:1003C0000000066F6F06000000000B0700000B071F
:1003D00000367F7F367F7F3600042E2A6B2A3A1044
:1003E000006373381C0E676300367F49793B6A48A7
:1003F000000000070B0000000000001C3E634100ED
:1004000000000041633E1C000000150A1F1F0A1572
:10041000000018187E7E1818000000B07000000060
:1004200000080808080808080000006060000000D4
:10043000006070381C0E0703001C3E6341633E1CC5
:100440000000427F7F4000000062735159494F46CF
:10045000002263414949773600181C16137F7F102C
:100460000027674545457D38003C7E4B494979303A
:1004700000030371790D070300367F4949497F3630
:1004800000064F4949693F1E0000000066660000F3
:1004900000000000A66600000000081C3663000093
:1004A000003636363636363600004163361C0800D4
:1004B000000203696D070600003E635D555D6B2E0B
:1004C000007C7E1311137E7C007F7F4949497F3673
:1004D000001C3E6341416322007F7F4141633E1C1B
:1004E000007F7F4949494941007F7F090909090186
:1004F000001C3E6341497979007F7F0808087F7FAF
:10050000000000417F7F41000030704040407F3F4D
:10051000007F7F183C366341007F7F404040404071
:10052000007F7F0E1C0E7F7F007F7F0E1C387F7F39
:10053000001C3E6341633E1C007F7F1111111F0EA2
:10054000003E7F4151713F5E007F7F0919396F4640
:1005500000266F4949497B32000001017F7F01017C
:10056000003F7F4040407F3F000F1F3870381F0F13
:10057000003F7F4038407F3F0063773E1C3E7763FB
:100580000000070F78780F07006171795D4F4743CE
:1005900000007F7F414100000003070E1C3870609F
:1005A000000041417F7F000000080C0603060C0894
:1005B0000080808080808080000000070B000000A9
:1005C00000307A4A4A7E3C40007F7F4442627E3C53
:1005D00000183C6642426624003C7E4242447F7FD3
:1005E000003C7E4A4A4A6E2C0000087E7F090A00C1
:1005F000001C3EA2A292FE7C007F7F0402027E7C51
:10060000000000487B7B4000000040C088FB7B006E
:1006100000007F7F08346642000000017F7F0000F9
:10062000007E7E027E047E7C007E7E0402067C7854
:1006300000183C6642663C1800FEFE2242427E3CA8
:10064000003C7E424222FEFE007E7E0402020E0C30
:1006500000246E4A4A4A7A300004043F7F446420F2
:10066000003E7E4040207E7E000E1E3060301E0E1A
:10067000003E7E4030407E3E0062761C081C766262
:10068000001E3EA0A090FE7E004262725A4E4600BE
:1006900000083E7741410000000000007F7F00001D
:1006A0000000004141773E08001C1C1C7F3E1C08D6
:1006B00000FF01020304050607FFFFFFFFFFFFFF26
:1006C000FFFFFFFFFFFFFFFFFFFFFFFFFFFFFFFF3A
:1006D000FF101112131415161718191A1B1C1D1EC2
:1006E0001F202122232425262728292A2B2C2D2EA2
:1006F0002F303132333435363738393A3B3C3D3E92
:100700003F404142434445464748494A4B4C4D4E81
:100710004F505152535455565758595A5B5C5D5E71
:100720005F606162636465666768696A6B6C6D6E61
:10073000FFFFFFFFFFFFFFFFFFFFFFFFFFFFFFFFC9
:10074000FFFFFFFFFFFFFFFFFFFFFFFFFFFFFFFFB9
:10075000FFFFFFFFFFFFFFFFFFFFFFFFFFFFFFFFA9
:10076000FF0FFFFFFFFF05FFFFFFFFFFFFFFFFFF83
:10077000FFFFFFFFFF08FFFFFFFFFFFFFFFFFFFF80
:10078000FFFFFFFFFFFFFF09FFFFFFFFFF0AFFFF64
:100790000BFFFFFFFF0CFFFFFFFFFFFFFFFFFFFF50
:1007A000FFFFFFFFFFFFFF0DFFFFFFFFFF0EFFFF3C
:1007B000FF000000008060101008C8C40404048416
:1007C00048281F1060800000000808083EC908087B
:1007D0000808FFFF14224180C000000000C13E0055
:1007E000000000000000030404080911101011119A
:1007F000090A7C0403000000000000000080601073
:100800001008C8C40404C48448281F106080000075
:10081000000808083EC908080808FFFF14224181A3
:100820000100000000C13E000000000000000304C1
:100830000408091110101010090A7C0403000000BC
:10084000000000000080601010C808E444444444E4
:1008500048487F1060800000000000003EC100009A
:1008600000FF009C08081C3E0808F80000C13E007C
:1008700000010101010103050509081311111111FE
:1008800009097F04030000000040404040C0605060
:1008900050C808E4444444444848FF1060800000C5
:1008A000000000003EC1000000FF009C08083E1C44
:1008B00008080F0000C13E00000000000000030413
:1008C000040908131111111109097F040300000024
:1008D000000000000080601010C808E44444444454
:1008E00048487F1060800000000000003EC100000A
:1008F00000FF00FF08081C3E0808F80000C13E0089
:10090000000101010101030505090813111111116D
:1009100009097F04030000000040404040C06050CF
:1009200050C808E4444444444848FF106080000034
:10093000000000003EC1000000FF00FF08083E1C50
:1009400008080F0000C13E00000000000000030482
:10095000040908131111111109097F040300000093
:10096000000000000080601010080804E484848403
:100970008888FF106080000000808080BEC1808079
:1009800080E0C080FF8080808080800000C13E00C9
:100990000000000000000304040B091013101010E5
:1009A00008087F0403000000008080808080E090C1
:1009B00090C8E884E48484848888FF106080000004
:1009C000000000003EC1000000010300FF808080A5
:1009D0008080800000C13E00000000000000030491
:1009E000040808101310101008087F04030000000A
:1009F0000000000000806010108808C40404048413
:100A000048281F1060800000000808083EC9080838
:100A100008FF00FF14224180C000000000C13E001A
:100A20000000000000000304040808111010111158
:100A3000090A7C0403000000000000000080601030
:100A4000108808C40404C48448281F106080000073
:100A5000000808083EC9080808FF00FF1422418169
:100A60000100000000C13E0000000000000003047F
:100A70000408081110101010090A7C04030000007B
:100A8000000000000000000020E0E0E0E0FEE0E008
:100A9000E0E0200000000000000000000000000076
:100AA0008080838FBFFFBF8F8380800000000000A5
:100AB000000008080808080808080402017F000070
:100AC0000000000000000000000000008080808026
:100AD0008080808080FE8080808080808080800018
:100AE0000000000080E0F8FEFFFEF8E08000010753
:100AF0001F7FFF7F1F070100001010101111090553
:100B00000301010101FF01010101010101010100D6
:100B100000001010101010101010204080FE000077
:100B200000000000000000000000000000000000C5
:100B300001071F7FFFFFFF7F1F070100000000006C
:100B4000000000000000000004040404057F050408
:100B500004040400000000000040404040C06090D9
:100B600010080804E48484848888FF1060800000F2
:100B7000000000003EC1000005060708FF808080DD
:100B80008080800000C13E000000000000000304DF
:100B9000040808101310101008087F040300000058
:100BA00000050A0605060A050A0609060A050A06D8
:100BB00009060A050A0609060A050A0609060A05BB
:100BC0000A06050A06090A06090A060011241FBEBC
:100BD000CFEFD8E0DEBFCDBF11E0A0E0B1E0ECEF99
:100BE000FBE602C005900D92A030B107D9F711E0E5
:100BF000A0E0B1E001C01D92AF3DB107E1F70E9456
:100C0000C50B0C94FC350C9400000E948A348EE3D2
:100C100091E00E947919F89488E10FB6F8948093D6
:100C20006000109260000FBE83B7817F846083BF35
:100C300083B7816083BF889583B78E7F83BF089514
:100C40008AEA90E00E94791987EB90E00E94351AB9
:100C500008950E9446198091020182FF03C08EE828
:100C600091E002C083E991E00E94791908950E9401
:100C700046198091020180FF02C08EE401C080E528
:100C80000E940F348AE891E00E94791908950F9329
:100C90001F938EE00E94DC1490939801809397013B
:100CA00004E911E088ECF80180838EE00E94DC14F6
:100CB0002091D201332727FD3095280F391F30931B
:100CC00098012093970189E1F80180831F910F918A
:100CD0000895FC018181608140E00E945420609170
:100CE00044017091450180914601909147014091E6
:100CF000430126E40E946C1808951F93162F0E944A
:100D00000F3482E792E00E947919812F0E940F34FC
:100D10000E94461960910F0170911001809111019C
:100D20009091120140910E0124E00E946C181F91D5
:100D30000895FF920F931F93CF93DF938091020149
:100D400080FF07C09091A3016091A20182E0F82E7C
:100D500006C09091A2016091A301FF24F3948091B9
:100D600001018F3119F005E413E402C003E514E436
:100D7000892F0E943322EC01009759F00E944619F6
:100D8000812F0E940F348F2D0E940F34802F0E94DC
:100D90000F348091020183FD49C08091A701909199
:100DA000A801892B81F080EC91E00E94271A6091C4
:100DB000A7017091A801882777FD8095982F4DEFA6
:100DC00026E50E9422198DE991E00E94271A609180
:100DD000B4017091B5018091B6019091B701409135
:100DE000B80126E40E946C188091A5019091A6019B
:100DF000892B71F082E192E00E94271A6091A5018F
:100E00007091A60180E090E04EEF24E00E946C1803
:100E1000209761F08BEB91E00E94271A6A817B8119
:100E200080E090E04DEF26E50E946C18CDB7DEB76C
:100E3000E5E00C94A035EF92FF920F931F93E82EFC
:100E4000F62E042F80E00E944A1981E00E944A1980
:100E500082E00E944A198DE30E940F3410E08091D5
:100E6000A101181711F48E2D07C08091A201181747
:100E700011F0802F01C08F2D0E940F341F5F13309F
:100E800071F71F910F91FF90EF90089587E791E020
:100E90000E9479190E94CB1985E462E341E30E9424
:100EA0001B0781E692E00E94271A60910F01709162
:100EB0001001809111019091120140910E0124E0E6
:100EC0000E946C1808958AE391E00E9479190E94AB
:100ED000CB1987E461E443E40E941B0788EC91E0AE
:100EE0000E94271A609133017091340180E090E0F4
:100EF0004DEF26E50E946C188BEB91E00E94271ABB
:100F0000609131017091320180E090E04DEF26E573
:100F10000E946C18089580910101823251F480E39F
:100F200091E00E9479190E94CB1987E461E443E4BF
:100F300009C084E391E00E9479190E94CB1987E4EB
:100F400062E341E30E941B078091A5019091A601F5
:100F5000892B71F081EB91E00E94271A6091A50125
:100F60007091A60180E090E04DEF26E50E946C189C
:100F7000089588E991E00E9479190E9437060E943D
:100F800029060E94CB1987E463E445E40E941B070D
:100F90000E9499060895EF920F931F93CF93DF93CA
:100FA000EC016091AF017091B0018091B10190911D
:100FB000B2014091B30102E310E020E030E057EFCE
:100FC000E52E0E94930D87FD10C0CE010E94271AC6
:100FD0006091AF017091B0018091B1019091B20127
:100FE0004091B30121E40E946C18DF91CF911F91D1
:100FF0000F91EF9008958091020184FF05C082E86F
:1010000091E00E94791903C08AE40E940F3486E8B7
:1010100091E00E9479190E9437068091020184FFB5
:1010200002C00E9429060E94CB198091020186FF0E
:1010300004C087E468E748E703C087E464E443E565
:101040000E941B078091020184FF02C00E94990642
:101050008091020183FF1EC089E092E00E94CB07CD
:101060008091A9019091AA01892BA1F086E192E0DB
:101070000E94271A0E94CB190E9446196091A9016B
:101080007091AA01882777FD8095982F4DEF26E56E
:101090000E9422190895A0E0B0E0E1E5F8E00C9488
:1010A0007E358091020180FF10C0C1EAD1E0E0905E
:1010B000A101F090A3010091A2011F2DAE2CB02E32
:1010C00072E0D72E992493940FC0C5EAD1E0E09046
:1010D000A301F090A1011091A2010E2DA12EBF2C11
:1010E000DD24D39462E0962E8CE291E00E94871971
:1010F000CE010E9479198091020182FF03C08BE228
:101100000E940F340E94CB1982E463E445E40E94FC
:101110001B07812F602F0E943322892B59F00E94D8
:10112000461983E40E940F348D2D0E940F3485E40C
:101130000E940F348F2D6E2D49E10E94581D813081
:1011400049F40E94CB1982E465E40E947D0684E0A4
:101150008093270189EA91E00E94271A6091AB01F0
:101160007091AC018091AD019091AE0140E020E022
:101170000E946C180E9446198091A40180FF02C051
:1011800085E603C081FF03C083E60E940F348E2DE5
:101190006F2D0E943322EC01009719F400E010E05B
:1011A00030C08DEA91E00E94271A0A811B812C81B0
:1011B0003D81C090AB01D090AC01E090AD01F090CA
:1011C000AE0144E6C416D104E104F10498F0C8016C
:1011D000821B930B63E070E00E9427354AEFC41630
:1011E000D104E104F10418F4061B170B03C08B01B2
:1011F000020F131FB80180E090E04DEF26E50E943A
:101200006C1886EB91E00E94CB0781E0053F180740
:1012100008F18A2D6B2D0E943322EC010097D1F04A
:101220008A819B81825C9140A8F40E94CB1982E460
:101230000E940F34892D0E940F3483E40E940F34E2
:101240000E9446196A817B8180E090E04DEF26E59F
:101250000E946C18CDB7DEB7EBE00C949A35A1E094
:10126000B0E0E5E3F9E00C947F3580910601813030
:1012700079F4F0906F01B5E0EB2EA5E0CA2EF5E011
:10128000DF2EEEE6AE2EE1E0BE2E00E010E022C141
:10129000823001F510916E01D09074011D1549F452
:1012A000C0906F01D090750175E0F72E81E08983C1
:1012B0004FC0F0906F0180917501F81621F4C12E96
:1012C00065E0E62E00C1181709F0F5C0FD1409F01D
:1012D000F2C038C0833061F520E046E0249F500121
:1012E0001124EEE6F1E0AE0EBF1E30E0349F800127
:1012F000112402591E4F231741F0F5019181F80185
:101300008081981711F425E035E03F5F333070F3AA
:101310002F5F233018F3253010F400E010E0F501C2
:10132000F18053E0E52E45E0C42E35E0D32ED2C047
:101330008AE692E00E94871980910601805D0E94F2
:101340000F34CBC0F12E25E0C22E95E0D92E1982A4
:101350001330A0F480916F010E944A198EE692E04A
:101360000E947919812F0E944A19E12E8EE6A82E3B
:1013700081E0B82E85010A5F1F4F16C0E12E0EE6F0
:10138000A02E01E0B02E85010A5F1F4FF50180817C
:101390000E944A198AE692E00E9479198F2D0E94D4
:1013A0004A190115110599F0EF1441F0F3E0FE150B
:1013B00028F0F801F1808AE692E004C0F801F0809C
:1013C0008EE692E00E9479198F2D0E944A19F4E06E
:1013D000FC1500F18C2D6D2D49E10E94581D8130C6
:1013E000C9F40E94461982E08E1518F085EA91E052
:1013F00002C081EA91E00E9479198FE30E940F34C4
:101400000E94CB1991E3D90E8C2D8F5C6D2D0E941B
:101410007D0619828BEB91E00E94271AF50162810B
:10142000738180E090E04DEF26E50E946C180E94E9
:1014300046190115110519F5F501848195818A3F39
:10144000910578F488E20E940F34F501648175817A
:1014500080E090E040E020E00E946C1889E20E9469
:101460000F34F5018181608140E00E94561581E0D2
:101470000E94A42384EC91E00E94CB0709C0F801EC
:101480006281738180E090E04DEF26E50E946C1848
:10149000F981F13011F58EEB91E00E94271AC50118
:1014A0000E94690601151105C1F00E944619C80184
:1014B0000E94690612C015E0E12EB5E0FB2EA5E002
:1014C000CA2EF5E0DF2EEEE6AE2EE1E0BE2E85015F
:1014D0000A5F1F4F81E0898359CF2196EAE00C947F
:1014E0009B35EF920F931F93CF93DF93609153013E
:1014F00070915401809155019091560100914401E1
:1015000010914501209146013091470140915201CF
:10151000E09043010E94930D813019F4C0E5D1E0C1
:1015200002C0C1E4D1E060916201709163018091D9
:101530006401909165010B811C812D813E81409158
:101540006101EA800E94930D813011F4CFE5D1E072
:1015500088810E944A1986E692E00E947919898161
:101560000E944A190E94CB196B817C818D819E81DA
:101570004A8126E40E946C18CE010E94E1208C0171
:101580008FEF0F3F180749F00E944619B80180E01D
:1015900090E04EEF24E00E946C188B859C85AD8511
:1015A000BE850097A105B10561F08EE092E00E9432
:1015B000271A6B857C858D859E8548EF21E40E94E6
:1015C0006C18DF91CF911F910F91EF900895A0E0DB
:1015D000B0E0EDEEFAE00C948235809105018130A7
:1015E00039F4D0900C010CE011E0EE24FF245CC033
:1015F000833031F00CE011E027E0E22EF12C47C0FF
:101600006091160170911701809118019091190154
:1016100000910F01109110012091110130911201E0
:1016200040911501E0900E010E94930D813019F454
:10163000C3E1D1E002C0CCE0D1E060911D01709126
:101640001E0180911F01909120010B811C812D8131
:101650003E8140911C01EA800E94930D813011F47B
:10166000CAE1D1E081E0CC30D80721F48E01095FD6
:101670001F4F02C00CE011E097E0E92EF12CE00EC4
:10168000F11EEC16FD0629F48EE0E82EF12CE00E9A
:10169000F11EF801D080F7018081D81629F08181F0
:1016A000D81611F0F801D180F80180818D1511F460
:1016B000F80181810E944A1982E792E00E9479191B
:1016C0008D2D0E944A19E114F10461F082E792E045
:1016D0000E947919F70180818D1511F4F70181813C
:1016E0000E944A190E94CB19F80163817481858197
:1016F0009681428124E00E946C18E114F10451F0BB
:101700000E944619F7016381748185819681428127
:1017100024E012C0C8010E94262B813079F40E9477
:1017200046196091D7017091D8018091D9019091AB
:10173000DA014091D60128E40E946C18CDB7DEB7DB
:10174000E7E00C949E35809102018130C9F48EE06F
:1017500091E00E9479190E94CB19809107010E94A3
:101760004A190E941A190E94461960910801709145
:10177000090180E090E04DEF26E50E946C18089585
:10178000823011F40E94200608950F931F9380E188
:1017900085BF87E880937A0014B7187084B7877F75
:1017A00084BF88E10FB6F8948093600010926000C7
:1017B0000FBE81E08093920182E0809393010E94AA
:1017C0002F2E0E9448331123D1F00E948A3482EADE
:1017D00090E00E94791987E191E00E94351A80ED2E
:1017E00097E00E945D1083B7817F846083BF83B7D9
:1017F000816083BF889583B78E7F83BF37C1339B5A
:1018000002C010E00FC084E190E00E945D103399A7
:1018100005C01F5F1536B9F713E02EC1103108F06F
:101820002AC111E00E94983410922101133019F45A
:101830000E94A91004C081E061E00E94951480918B
:10184000D4010E94A23386E890E00E9479198BE7C8
:1018500091E00E94351A8CED95E00E945D1089E1BF
:101860008093940181E0809395018093960189E8AB
:1018700093E190939A01809399012FE088E190E0A1
:101880000FB6F894A895809360000FBE2093600077
:10189000789413E002E0109201011092020110927C
:1018A000030110920401109206011092050110929A
:1018B000A4011092A6011092A5011092A801109205
:1018C000A7011092AA011092A9011092AB011092E7
:1018D000AC011092AD011092AE011092AF011092C6
:1018E000B0011092B1011092B20110923201109227
:1018F000310110923401109233011093270117B86F
:10190000009321010E948A340E94470686E890E0F5
:101910000E94791987E990E00E94351A0E94701799
:10192000809101018130D1F180E061E042E00E94CC
:101930007E1681E060E042E00E947E1680E062E078
:1019400041E00E947E1682E060E041E00E947E1647
:1019500081E062E040E00E947E1682E061E040E0CB
:101960000E947E160E943E1680910101882311F08C
:101970008A30A1F40E94461983E40E940F3482E069
:1019800060E040E00E94542082E061E041E00E947B
:10199000542081E060E042E00E9454200E948A349A
:1019A00010932101809101018F3139F1803270F45F
:1019B0008B30A9F18C3028F48130B1F08A3091F568
:1019C0002BC08431A1F08E3169F514C08232D9F078
:1019D000833228F48032A1F0813221F514C08332A1
:1019E000A9F08432F9F415C00E94A30B1DC00E9417
:1019F0002F091AC00E944B0817C00E94FB0714C091
:101A00000E94B90711C00E948B070EC00E94630795
:101A10000BC00E94460708C00E94E70A05C00E944A
:101A2000710A02C00E942006809101018E3130F0BF
:101A300080912701882311F00E94F0191092210152
:101A400088EB9BE06EE10E94260E882309F423CFE9
:101A5000833021F0823041F0853619F40E94EC0F7A
:101A6000EDCF873609F017CF0E94050680E090E0A1
:101A70001F910F91089512E0809192018E7F8093C3
:101A80009201D0CEAF92BF92CF92DF92FF920F938E
:101A90001F93DF93CF9300D00F92CDB7DEB789832A
:101AA0006A834B836E010894C11CD11C860134E00B
:101AB000A32EB12CAC0EBD1E802F8C19F801F08026
:101AC000FF2049F00E944A190E941A198F2D0E9486
:101AD0000F340E9446190F5F1F4F0A151B0561F74F
:101AE0000F900F900F90CF91DF911F910F91FF906A
:101AF000DF90CF90BF90AF9008951F9311E00BC07F
:101B00002AE030E040E050E00E943A35C901DA01B5
:101B1000BC01CD011F5F6A3071058105910580F719
:101B2000812F1F9108956F927F928F929F92AF9213
:101B3000BF92CF92DF92EF92FF920F931F933B01E0
:101B40004C01F42E580169010E2D0E947D0D182FB5
:101B5000C601B5010E947D0D6114710481049104D8
:101B600091F1A114B104C104D10431F1EF2CE10EC3
:101B7000800F8E1534F1E81669F51E2D1F19E01A35
:101B80000BC0C601B5012AE030E040E050E00E9401
:101B9000E7345B016C01E394E1169CF30BC0C401D4
:101BA000B3012AE030E040E050E00E94E7343B011E
:101BB0004C011F5F1E159CF3A614B704C804D9047A
:101BC00010F481E008C06A147B048C049D0410F0BA
:101BD00080E001C08FEF1F910F91FF90EF90DF9099
:101BE000CF90BF90AF909F908F907F906F9008950F
:101BF0000F931F93142F022F9B01AC0117C01017D6
:101C000054F4B901CA012AE030E040E050E00E94FB
:101C10003A351F5F0BC0B901CA012AE030E040E04D
:101C200050E00E94E7349B01AC011150101739F7C6
:101C3000B901CA011F910F910895681721F48AE232
:101C40000E940F3408950E94461908958F929F9222
:101C5000AF92BF92DF92EF92FF920F931F93CF93B9
:101C6000DF937C0162FF08C08091920180FF03C076
:101C7000EE24FF2401C06C7FC62FD0E033E0A32EFA
:101C8000B12CAC22BD22A114B10409F46DC081E0D5
:101C90000E944E3469C0E114F10451F086E0E81668
:101CA000F10410F400E004C08BEF9FEFE80EF91E82
:101CB00033993AC08EE190E00E945D1010E009C0B7
:101CC000339909C01F5F1B3130F48AE090E00E9415
:101CD0005D100023A9F71B3118F022E0D22E22C09C
:101CE000209719F4DD24D3941DC082E390E00E9474
:101CF0005D10DD24D39414E133990DC08EE190E0A2
:101D00000E945D10339907C088EC90E00E945D103E
:101D100093E0D92E11E011508AE090E00E945D100E
:101D2000112351F700E016C085E090E00E945D109D
:101D30001F5F143679F48114910459F0013029F4AD
:101D400080E00E944E3402E004C081E00E944E34E4
:101D500001E010E08091930180FF11C08091930118
:101D60008E7F809393010EC0DD2401E010E082E0BD
:101D7000882E912C8C229D22C870D0708CCF00238D
:101D800009F089CFAB2819F080E00E944E348D2DE8
:101D9000DF91CF911F910F91FF90EF90DF90BF9057
:101DA000AF909F908F900895A0E0B0E0EAEDFEE044
:101DB0000C947B35662E4A015901C82ECA94E090D6
:101DC0002501EA940E941A19FF24DD2402E07E2CEA
:101DD0007A9481E0E81611F40F5FDF2CCD2DD0E06E
:101DE000CC0FDD1FC80DD91D10E02EC0612F6E5F16
:101DF00081E00E94C83381E0E81629F0812F8D0D23
:101E00006F2D0E941D0E0230D0F081E0681629F47B
:101E1000888199810E94791909C0FE0165917491A8
:101E200080E090E040E020E00E946C18A114B10432
:101E300019F0C5010E94791980E00E945D341F5F8E
:101E4000C11608F41E2D22961E1580F281E0E816B8
:101E500049F480912401609125010E94C8338CE3EC
:101E60000E940F3484E690E00E945D1080E090E0D4
:101E700060E10E94260E8130A1F4FC1441F4FE14AE
:101E800018F0FF24DD240BC0FF24DD240CC0F394E4
:101E9000872D8D0DF81639F4FC1428F4D39402E044
:101EA00098CF823011F001E094CF0E948A3484EF01
:101EB00091E00E945D108F2DCDB7DEB7EEE00C945F
:101EC0009735ABE1B0E0E7E6FFE00C9487358FE4AF
:101ED00091E09B878A878DE089838BE591E09D87E0
:101EE0008C878EE08A838BEC90E09F878E8781E0E1
:101EF0008B8380ED90E0998B888B82E08C8386E4E5
:101F000091E09B8B8A8B8CE08D838BED90E09D8B99
:101F10008C8B83E08E8380EE90E09F8B8E8B84E0B1
:101F20008F8385EE90E0998F888F85E088878EE19A
:101F300091E09B8F8A8F19860E948A3484EC90E00E
:101F40000E94791989E061E0AE01465F5F4F20E0B1
:101F500030E00E94D40EFE01E80FF11D81816B96E6
:101F6000E2E00C94A335A9E0B0E0E9EBFFE00C94CB
:101F70008635182F83E092E09D838C8386E092E083
:101F80009F838E838EE191E0998788870E948A34AF
:101F9000123019F48BED90E002C080EE90E00E94C8
:101FA000791983E061E0AE014C5F5F4F20E030E0E3
:101FB0000E94D40E91E0998392E09A831B82FE01E5
:101FC000E80FF11D6181662319F0812F0E9495149D
:101FD0002996E3E00C94A2351F930E94610FE82F2D
:101FE000F0E0EF30F105F0F4EC5CFF4F0C94AE350F
:101FF00019E619C00E94D41002C00E947312182F53
:1020000012C082E001C081E00E94B30F0BC00E94A9
:10201000091208C00E94951905C00E94C63202C06C
:102020000E94832C11E00E948A34112319F487E165
:1020300091E002C08EEB90E00E947919812F1F91F0
:1020400008950F931F93CF93DF93082F882321F4D4
:10205000C1EFD0E010E003C0C8EFD0E013E00E9471
:102060005B17811799F00E948A34CE010E9479197A
:102070000E94CB198FEF90E00E9479190E945B17A4
:10208000811731F488EC90E00E945D1081E00AC075
:1020900084E690E060E10E94260E013079F7882303
:1020A00069F380E0DF91CF911F910F91089588EB44
:1020B0009BE065E10E94260E08959C011092B100FC
:1020C0001092B20082E08093B000809370000FB64F
:1020D00007FC1FC0789460E01DC0A8952F3F310514
:1020E0004105510519F010F09FEF01C0922F91505A
:1020F0009093B3009F5F7093B10002C00000000096
:102100008091B1008823D1F7291B31094109510978
:102110000BC061E040E050E084E0220F331F441F19
:10212000551F8A95D1F777E02115310541055105F5
:10213000A1F6662309F4F89408951F920F920FB642
:102140000F9211241092B1000F900FBE0F901F90AC
:10215000189588EC90E09093CC018093CB018CEDA6
:1021600090E09093CE018093CD0184E190E0909334
:10217000D0018093CF018BE28093D1011092D201E4
:102180001092D3018FE78093D4010895EBECF1E036
:1021900090E08191980F81E0E53DF807D1F7992310
:1021A00009F491E0892F0895A0E0B0E0EAEDF0E1B4
:1021B0000C94773581E00E942110882319F4BAE04D
:1021C000DB2E02C0DD24D394AA24BB24C0E0D0E0DF
:1021D00088249924A8E06A2EF0E27F2EE0E85E2EA3
:1021E0000EC1CC24C39474E4272E60E1462E50E542
:1021F000352E0E948A3484E50E940F348D2D805D37
:102200000E940F340E94461983E0D81609F462C078
:102210008D1540F081E0D81689F082E0D81609F0DB
:10222000AFC022C085E0D81609F484C0D81608F4DF
:102230007AC086E0D81609F0A3C08CC08EE00E9458
:10224000DC148EE00E94DC147C018BEC91E00E9497
:1022500079190E94CB1900E010E0C801B7014DEFD9
:1022600026E50E946C1864C080EE91E00E948719F8
:102270008AEE91E00E9479196091990170919A011A
:1022800080E090E020E733E040E050E00E94E73457
:1022900024EF36E040E050E00E945C3579018A018D
:1022A00084E08BB984E18AB982E00E944415EC0194
:1022B000CE19DF092AB881E00E9444155C01AE18EE
:1022C000BF084BB83AB880E00E9444154C018E1804
:1022D0009F0856C085EE91E00E9487198AEE91E032
:1022E0000E9479190091990110919A01169507950C
:1022F0006BB888E28AB982E00E944415EC01C01BE9
:10230000D10B88E88AB981E00E9444155C01A01ACB
:10231000B10A7BB880EA8AB980E00E9444154C017A
:10232000801A910A2DC080E00E94211034E6C32E4D
:1023300080E027C080ED91E00E9479191BB86AB84F
:1023400080E00E9444154C017AB881E00E94441557
:102350005C0111C084ED91E00E9479196BB86AB8F4
:1023600080E00E9444154C017BB87AB881E00E945D
:1023700044155C015BB85AB882E00E944415EC0138
:1023800081E01AB81BB8882309F10E94CB19B40167
:10239000882777FD8095982F40E020E00E94221941
:1023A0000E944619B501882777FD8095982F40E057
:1023B00020E00E9422190E944619BE01882777FD5D
:1023C0008095982F40E020E00E94221984E6C816EC
:1023D00081F088EE93E060E10E94260E882349F0A8
:1023E000823029F424E6C22E94E6D92E02C084E677
:1023F000C82EC39485E08C1508F0FBCED39486E0FC
:102400008D1508F0EECE81E0CDB7DEB7E2E10C9499
:10241000933581E0809321010E948A3488ED91E018
:102420000E9487196091CB017091CC0180E090E00F
:102430004FEF24E00E946C188CED91E00E94271A67
:102440006091CD017091CE0180E090E04FEF24E0EB
:102450000E946C1883EF91E00E94271A6091D101CD
:1024600070E080E090E044EF26E40E946C1886EF74
:1024700091E00E94271A6091CF017091D00180E015
:1024800090E04EEF24E00E946C188BEC91E00E94EB
:10249000271A609197017091980180E090E04DEFCC
:1024A00026E50E946C1889EF91E00E94271A60913E
:1024B000990170919A0180E090E04DEF26E50E942D
:1024C0006C188DEF91E00E94271A6091D301772755
:1024D00067FD7095872F972F4DEF26E50E942219F3
:1024E0000E9457100895A4E0B0E0E9E7F2E10C94EF
:1024F000773581E00E942110882319F4EAE0DE2E6E
:1025000002C072E0D72EEE24FF2400E010E01C820F
:102510001B827724AA24BB246624882499241A8247
:102520004424552419822224332463C1CC24C39427
:102530000E948A3481E40E940F348D2D805D0E94B8
:102540000F340E94461924E0D21609F452C02D150A
:1025500040F032E0D31671F083E0D81609F00CC1D8
:1025600041C095E0D91609F470C0E6E0DE1609F026
:1025700003C1ABC086EF91E00E9487198AEE91E01B
:102580000E94791981E060E040E00E94561580E0E9
:102590000E94401A7C018639910518F4880E991E14
:1025A000639482E060E040E00E94561580E00E9463
:1025B000401A8C018639910518F4880E991E63948F
:1025C00082E061E040E00E94561580E00E94401ADF
:1025D0009C838B838639910508F0CEC0880E991EA6
:1025E0006394CAC080E00E94211064E6C62E80E099
:1025F000C4C088ED91E00E94791918B821E027B98C
:10260000DBB8DAB880E00E944D157C0132E037B9C2
:1026100080E18BB98AB981E00E944D158C01D7B851
:1026200090E49BB99AB982E00E944D159C838B83FC
:10263000C701800F911F480E591EEB81FC814E0E81
:102640005F1EFA81FD5FFA8397C08CED91E00E94D6
:1026500079191BB821E028B927B934E03AB9E090DC
:102660009901F0909A0180E00E944D15E81AF90A4C
:1026700082E088B987B990E19AB9009199011091E7
:102680009A0181E00E944D15081B190BE4E0E8B99E
:10269000E7B9F0E4FAB92091990130919A013C83AD
:1026A0002B8382E00E944D15EB81FC81E81BF90B26
:1026B000FC83EB83C701800F911F280E391E2E0E5D
:1026C0003F1EF981FD5FF98357C083EF91E00E94BF
:1026D00087198AEE91E00E94791981E060E040E07C
:1026E0000E94542080914301843F89F480914801E5
:1026F00090914901A0914A01B0914B018536910515
:10270000A105B10520F47C01A80EB91E739482E0E6
:1027100060E041E00E94542080915201843F89F49E
:102720008091570190915801A0915901B0915A019F
:1027300085369105A105B10520F48C01A80EB91EBE
:10274000739482E061E042E00E9454208091610134
:10275000843F91F48091660190916701A091680196
:10276000B091690185369105A105B10528F49C83D6
:102770008B83A80EB91E739481E017B818B81AB8E5
:102780001BB88823E9F00E94CB19B70180E090E0E4
:1027900040E020E00E946C180E944619B80180E0D9
:1027A00090E040E020E00E946C180E9446192B81C6
:1027B0003C81B90180E090E040E020E00E946C188C
:1027C00034E6C31681F088EE93E060E10E94260EA5
:1027D000882349F0823029F454E6C52E44E6D42EED
:1027E00002C034E6C32EC39485E08C1508F0A0CE59
:1027F000D39496E09D1508F099CEEFE07E1611F087
:10280000BB2409C0C5016FE070E00E9413356093DE
:10281000D101BB24B394FFE06F1651F4C4016FE003
:1028200070E00E9413357093D0016093CF01B39490
:102830002A812F3009F06EC039813F3009F06AC01B
:10284000C20165E070E00E9413358B01C10165E0B3
:1028500070E00E9413354B014091990150919A010B
:10286000CA01880F991F840F951F801B910B861B2F
:10287000970B6C01EE24FF2420E030E0C901B80181
:1028800020EA39E041E050E00E94E734A7019601D8
:102890000E943A35B901CA016B5F7F4F8F4F9F4F3E
:1028A0002AE030E040E050E00E943A35C901DA0108
:1028B0008A3F9105A105B10528F43093CC012093FE
:1028C000CB01B394B40180E090E020EA39E041E02C
:1028D00050E00E94E734A70196010E943A35B90101
:1028E000CA016B5F7F4F8F4F9F4F2AE030E040E07F
:1028F00050E00E943A35C901DA018831E1E09E07D3
:10290000E0E0AE07E0E0BE0728F43093CE0120936C
:10291000CD01B3940E94091280E0F4E0BF1609F4DF
:1029200081E02496E2E10C949335FF920F931F937C
:10293000CF93DF93F82E623019F40BE010E002C061
:1029400000E010E0CBECD1E00E94C6108093D501EE
:1029500082E0F81629F4C80168810E94DE3504C0BF
:10296000C8010E94D635888381E0C53DD80721F093
:1029700021960F5F1F4FECCF82E0F816C1F00E9446
:10298000C6109091D501992391F0981781F00E947B
:102990008A3483E291E00E94791987E191E00E94F4
:1029A000351A80ED97E00E945D100E94A910CDB706
:1029B000DEB7E5E00C94A035FF920F931F93182F1C
:1029C0001F70106410937C00012F007C8091960191
:1029D000081721F00E94DA340093960180917A0062
:1029E000806480937A0080917A0086FDFCCFF0901D
:1029F00094017091950120E030E040E050E060E00B
:102A000020C080917A00806480937A0080917A005F
:102A100086FDFCCF8091780090917900A0E0B0E035
:102A2000280F391F4A1F5B1F643051F484E02030A7
:102A3000380730F4003C21F0713011F4106CC2CF33
:102A40006F5F6F15F0F2003C29F46091970170916F
:102A5000980104C06091990170919A0180E090E022
:102A60000E94E7342AE096958795779567952A9591
:102A7000D1F72F2D30E040E050E00E943A35C901F7
:102A80001F910F91FF9008951F93182F0E94CF342C
:102A9000812F0E94DC141F9108951F93182F0E940C
:102AA000D134812F0E94DC141F910895CF93DF93BE
:102AB0008093B9016093BA014093BB01A82FB0E0A5
:102AC0008DE293E0FC01EA0FFB1FE491E093BF016C
:102AD000262F30E0FC01E20FF31FE491E093C001E8
:102AE00050E0840F951FFC0184918093C10180E325
:102AF00093E0FC01EA0FFB1FE491E093C201FC01AB
:102B0000E20FF31FE491E093C301840F951FFC01D2
:102B100084918093C40183E393E0FC01EA0FFB1FDF
:102B2000E491E093C501FC01E20FF31FE491E0930F
:102B3000C601840F951FFC0184918093C701C6E3F1
:102B4000D3E0AC0FBD1FFD0184918093C8012C0F11
:102B50003D1FF90164916093C901C40FD51FFE01A7
:102B600084918093CA01DF91CF9108958091BC0137
:102B70006091BD014091BE010E945615089580915B
:102B8000B9018093BC018091BA018093BD0180910D
:102B9000BB018093BE01089593E0981B892F861B8B
:102BA0000895EF92FF920F931F93CF93DF93AC01A1
:102BB000613049F4EBEDF2E088EE93E0C2E3D0E05F
:102BC00027E030E018C0623049F4EFE7F2E08CE231
:102BD00091E0C9E1D0E02CE230E00DC0633019F0A3
:102BE00020E030E045C0EDEEF2E088EC90E0C9E195
:102BF000D0E02EE130E04817590718F400E010E06B
:102C000003C08A01081B190BC801BE010E941335BD
:102C1000862F90E02817390708F4622F862F90E05E
:102C2000880F991F8E0F9F1FFC01259134910296EA
:102C3000FC01E590F4902E193F09C801BE010E94E5
:102C40001335AE01481B842F90E0FC012E9FC0017C
:102C50002F9F900D3E9F900D11249E013695279534
:102C6000820F931FBE010E9413359B012E0D3F1D45
:102C7000C901CDB7DEB7E6E00C949F359091040111
:102C80009923E1F08091030180FD18C081FD04C00B
:102C9000809101018E3190F49093010180912E0179
:102CA0008093A10180912F018093A2018091300136
:102CB0008093A30180910B0180930A0108951F93D3
:102CC000182F60FF03C08BB1812B03C09BB180958F
:102CD00089238BB98AB1812B8AB963FF03C00E9413
:102CE000D53402C00E94D0348AB1912F90958923A7
:102CF0008AB98BB198239BB91F9108950F931F93A5
:102D0000CF93DF93082F162F80910101813009F4B2
:102D100096C0A895802F0E9456151BB88091C001BF
:102D20008AB98091C50187B988B98091C10160E1F4
:102D30000E945F168091C9010E944D15EC0123E0AD
:102D4000813D920750F08091C10161E10E945F16C0
:102D50008091C9010E944D15EC01C031D10538F0B8
:102D600080910301882319F4CE010E94042583E099
:102D7000C13DD80708F046C0809103018823D1F4F3
:102D80008091C0018AB91BB88091C50187B988B903
:102D90000E94D1348091C1019091C001892B8AB9E0
:102DA000812F0E944D158F559D4020F082E0BE017D
:102DB0000E943D27809103018823E9F48091C60198
:102DC00087B918B88091C1019091BF01892B8AB948
:102DD0008BB9802F0E944D158054964060F40E945C
:102DE0006224882341F480910101813221F081E045
:102DF000BE010E943D2780910301882359F40E945F
:102E0000622208C080910301882311F40E941124DA
:102E10000E94152980910101882311F08A3019F44C
:102E20000E940A1B08C08F3131F48091020184FF97
:102E300002C00E94472217B818B81AB81BB8DF9111
:102E4000CF911F910F910895CF93DF9340E00E949F
:102E5000561517B88091BF018BB99091C001892B8D
:102E60008AB98091C8010E944D15EC018091C90179
:102E70000E94DC142091990130919A013695279592
:102E8000B9016E5170406C177D0778F4A901425E5C
:102E90005F4FC417D50748F46817790730F420E06E
:102EA0008417950718F421E001C020E01AB8822F9A
:102EB000DF91CF9108950F931F9380E061E00E940E
:102EC0002417082F80E062E00E942417182F81E069
:102ED00062E00E942417100F810F1F910F91089537
:102EE000A6E0B0E0E6E7F7E10C947D3517B818B836
:102EF0001BB88CEF8AB980E00E94DC149A83898326
:102F000081E00E94DC149C838B8382E00E94DC14AD
:102F10009E838D83FF24F39408E2D02E12E0E12EED
:102F2000CC244E010894811C911CB1E0AB2EB12C35
:102F3000E39483E0E81609F4EE240E2D10E08C2DC6
:102F400090E00E2C02C0959587950A94E2F780FDDB
:102F50006FC08E2D0E94DC149C01F801EE0FFF1F44
:102F6000E80DF91D808191812817390770F43183AC
:102F700020838D2D90E08F199109449784F4EAEE17
:102F8000ED1568F0F4E1DF0E0AC02A30310528F4AF
:102F900088E2D81611F470E5D72EF39402C0FF240E
:102FA000F3942330310548F4C501002E02C0880F88
:102FB000991F0A94E2F7C82A0BC02052334040F40C
:102FC00087B1EE2DF0E0ED5CFC4FE491E82BE7B922
:102FD000F7E0CF1681F1DF1430F581E08093010135
:102FE00080930201E09207012E2D30E0F901ED5CA3
:102FF000FC4FE49187B1E095E823E7B9F901E05D82
:10300000FC4F4491235D3C4FF90194918AB1942B7C
:10301000909598239AB98E2D0E94DC149093090103
:103020008093080108C0A89582E390E00E945D109B
:10303000FF2009F07DCF1AB817B82696ECE00C9463
:103040009935EF92FF920F931F93E82EF62E17B843
:1030500018B81AB81BB840E00E9456158091C501F7
:1030600087B98091C9010E94DC148C018091C6014E
:1030700087B98091C8010E94DC140817190728F449
:103080008F2D6E2D40E00E9456158091C50187B9A5
:103090008091C0018AB901E08091C9010E94DC14CD
:1030A0009C0181E02039380740F487B19091C60136
:1030B000892B87B92832310540F00F5F033329F09F
:1030C00084E690E00E945D10E7CF17B81AB81F9110
:1030D0000F91FF90EF9008959F92AF92BF92CF9281
:1030E000DF92EF92FF920F931F936B017C01042FED
:1030F000922E15C085E090E0A0E0B0E0C80ED91E89
:10310000EA1EFB1EC701B6012AE030E040E050E0B5
:103110000E943A35C901DA016C017D010F5F90E12F
:10312000C91697E2D90690E0E90690E0F90610F793
:10313000013F1CF4AA24BB241AC0202F215F822F38
:1031400063E00E940635E82F822F63E00E94063577
:10315000B92E992321F0EF5F83E0891BB82EE83068
:1031600010F0AA2404C0F0E0E958FD4FA49005E354
:1031700011E0C601B8014AE050E00E94C035D80114
:103180000D900020E9F78D010150104005531140CA
:10319000E02E0B1910165CF080E30E940F348EE2D3
:1031A0000E940F34002319F080E30E940F34BB20EB
:1031B00009F40FEF0150FF24C02EDD24C7FCD0948A
:1031C0000FC00F2D10E0F801EB5CFE4F80810E94D4
:1031D0000F340C151D0519F48EE20E940F34F39480
:1031E000FE1478F3AA2019F08A2D0E940F3499203A
:1031F00019F0892D0E940F341F910F91FF90EF90CD
:10320000DF90CF90BF90AF909F9008958A3010F4D8
:10321000805D01C0895A0E940F3408951F93182FB2
:1032200082958F700E940619812F8F700E94061957
:103230001F9108958AE30E940F3408958DE20E9441
:103240000F340895CF92DF92EF92FF920F931F9366
:103250007B018C01D42EC22E97FF0BC08DE20E9401
:103260000F3410950095F094E094E11CF11C011DC1
:10327000111DC801B7014D2D2C2D0E946C181F91F6
:103280000F91FF90EF90DF90CF90089580E20E9421
:103290000F3408958F5C0E940F3408951F93182FE8
:1032A000E0910A0183E0E89FE02D1124F0E0EF5562
:1032B000F44FE60FF11D84918823C9F090912A0103
:1032C000915060912B01282F21FF04C0809128018B
:1032D0008F5F980F22FF04C080912901680F615011
:1032E000892F0E94C833812F8F5C0E940F341F9159
:1032F0000895CF93DF93EC0103C00E940F34219611
:10330000FE0184918823C9F7DF91CF9108950E942F
:10331000791980E20E940F34089582E00E945D34A2
:1033200081E062E00E94C8330895FF920F931F93DB
:103330000E948A3486E491E00E9487191091D4019A
:10334000F09026010E948D19612F70E080E090E0DE
:1033500040E020E00E946C188CE291E00E945D1039
:1033600080E090E068E10E94260E082F813021F471
:103370001F1540F41F5F06C0833011F400E002C047
:1033800011111150812F0E94A2330023D9F61F91F1
:103390000F91FF9008951F93909121016091230157
:1033A000809125016817B1F4192F90FF02C00E9487
:1033B000571011FF0CC01091250104C0812F0E94ED
:1033C0005D3411501230D0F781E062E005C00E94F8
:1033D0008A3404C06F5F81E00E94C8331F91089552
:1033E000282F8091290190912501891778F5309136
:1033F0002401303118F0820F891738F0909323019F
:103400000E94CB1922E083E004C080912801381B80
:10341000832F80932A0120932B018091A10160E0EA
:103420000E944E198091A20161E00E944E19809184
:10343000A30162E00E944E1980912A0160912B0144
:103440000E94C83380910A010E94DB3308950F93D4
:103450001F938C010E94CB19C8010E94791980E248
:103460000E940F341F910F9108950F931F938C01A9
:103470000E94CB19C8010E9479191F910F910895DC
:10348000A0E0B0E0E6E4FAE10C947A35582E0E9410
:10349000701780910101813019F420E030E0A6C05E
:1034A00018B88091C60187B98091BF018BB98AB9DC
:1034B0000E94D03461E0662477244301862F90E097
:1034C000EC01C170D07060FF03C08091C80102C0E0
:1034D0008091C901A895806C80937C000E94DA34A9
:1034E00080917A00806480937A0080917A0086FDD2
:1034F000FCCFAA24EE24FF24870180917A00806407
:1035000080937A0080917A0086FDFCCF80917800CC
:1035100090917900A0E0B0E0E80EF91E0A1F1B1F91
:103520000E94D734A39484E6A81639F72091970116
:103530003091980140E050E0C801B7010E94E734A3
:103540007B018C018AE016950795F794E7948A959C
:10355000D1F762E0CD2B09F44FC0C701D8013C017F
:103560004D01ACCF6091990170919A0180E090E09B
:1035700024E630E040E050E00E94E7346619770925
:10358000880999090E94E7345B016C016E187F0875
:10359000800A910AC401B30128EE33E040E050E014
:1035A0000E94E7347B018C012091CD013091CE0146
:1035B0002057354E40E050E0C601B5010E943A3533
:1035C000C801B7010E943A3581E0581661F4809134
:1035D000CF019091D0018217930718F4281B390B63
:1035E00002C020E030E080EC80939601C901CDB7A5
:1035F000DEB7EFE00C9496351BB88091C501909131
:10360000C601892B87B9E614F7040805190508F4E3
:10361000A9CFE7CFA0E0B0E0E0E1FBE10C94783582
:10362000A89518B88091C60187B98091BF018AB961
:103630008BB98091C9010E944D157C018091C80110
:103640000E94DC144C011BB88091C2018AB98091A0
:10365000C8010E944D15459708F025C28091C2010E
:103660008BB98091C8010E944D152C018091C50134
:1036700087B988B91BB88091C0018AB98091C80107
:103680000E944D158C018091C9010E94DC143C01FF
:103690008091C3018AB98091C9010E944D15EC0146
:1036A00020E3821621E1920628F482E648165104AE
:1036B00008F0F9C12CE6421623E1520608F0F3C1E6
:1036C00089EA6816710408F06EC0C632D10508F4A4
:1036D000EAC1B20180E090E020EF3BE247E050E039
:1036E0000E94E734E0909901F0909A019701241923
:1036F000350940E050E00E943A3559016A01EC1A60
:10370000FD0A00E010E0C801B70120EF3BE247E00E
:1037100050E00E94E7349E0140E050E00E943A35BC
:10372000B901CA012EED421623E0520670F442E0C0
:10373000AA0CBB1CCC1CDD1C4A95D1F7A60EB71EEB
:10374000C81ED91EC601B5010EC0CE5DD340B0F46F
:1037500032E0660F771F881F991F3A95D1F76A0DDF
:103760007B1D8C1D9D1D25E030E040E050E00E9457
:103770003A35C901DA01BC01CD0108C06A0D7B1DD3
:103780008C1D9D1D9695879577956795625A7E4FFE
:103790008F4F9F4F2AE030E040E050E00E94E73436
:1037A0003B014C01A0C08E149F0408F490C0061584
:1037B000170508F48CC0C0919901D0919A018C161C
:1037C0009D0619F40894810891082091CD0130914B
:1037D000CE012057354E40E050E0B4016E197F090C
:1037E00080E090E00E94E734C819D9099E0140E0CA
:1037F00050E00E943A3559016A012091CB01309185
:10380000CC012057354E40E050E006191709B801A9
:1038100080E090E00E94E734930140E050E00E9495
:103820003A3579018A018EED881683E0980640F4D6
:1038300092E0AA0CBB1CCC1CDD1C9A95D1F715C0DC
:103840002EED621623E07206B8F588EFE81684E2E2
:10385000F80681E0080780E0180790F482E0EE0C9B
:10386000FF1C001F111F8A95D1F7AE0CBF1CC01E94
:10387000D11EC601B50125E030E040E050E015C0A2
:10388000C801B701B3E0660F771F881F991FBA956B
:10389000D1F76E0D7F1D801F911F6A0D7B1D8C1D42
:1038A0009D1D2AE030E040E050E00E943A35C90119
:1038B000DA013C014D0117C0350146016E0C7F1C39
:1038C000801E911E96948794779467940CC02FE87D
:1038D000621622E1720608F4E2C0FAE06F2E712C43
:1038E000812C912C06C084E6681671048104910431
:1038F00078F581E00E94401A7C0100E010E0C401EC
:10390000B301660F771F881F991F25E062167104A7
:103910008104910420F4660D771D881D991D2AE00D
:1039200030E040E050E00E94E73461157105810508
:10393000910521F464E670E080E090E0E616F70679
:103940000807190728F4370148015EEF552E02C019
:1039500055245A9420E047E0342E3AE0432E81C0AB
:10396000239DE0011124C45FDE4F98818091B9014D
:10397000981709F073C099818091BA01981709F0DE
:103980006DC0C401B301452D02E010E020E030E03D
:10399000EE240E94930D8F3F91F56B817C818D8188
:1039A0009E814A8102E010E020E030E00E94930D09
:1039B0008F3FF1F44A81451519F0FF24FA9402C0B3
:1039C000FF24F3946B817C818D819E81940183011E
:1039D000E52C0E94930D8F1531F46B807C808D80D7
:1039E0009E805A8005C06B827C828D829E825A8224
:1039F00064015301D694C794B794A7940CC0C40132
:103A0000B30124E130E040E050E00E943A35C901C2
:103A1000DA015C016D016B817C818D819E81940155
:103A200083010A191B092C093D094A81E52C0E94D2
:103A3000930D87FD15C06B817C818D819E81A60CC5
:103A4000B71CC81CD91C4A81960185010E94930DA0
:103A5000181634F04092010124E603C02F5F01C024
:103A600028EC90910501291708F47ACF2436D9F073
:103A70009330C8F4E7E09E9FF0011124E45FFE4F0D
:103A80008091BA0180838091B901818363827482BD
:103A90008582968252829F5F9093050104C06624BE
:103AA0007724430126CFCDB7DEB7E1E10C949435FE
:103AB000EF920F931F93142F1092050140E00E9484
:103AC00056150E940A1B80910501813011F090E08B
:103AD00017C01123A1F0612F70E080E090E0009109
:103AE0000F0110911001209111013091120143E05A
:103AF000E0900E010E94930D90E0813009F491E076
:103B0000892F1F910F91EF900895982F813110F414
:103B100080E00895915115BC82E084BD97BD81E09D
:103B2000089516BC81E085BDA99BFECF15BC82E03F
:103B300085BB08954F925F926F927F929F92AF9252
:103B4000BF92CF92DF92EF92FF920F931F93CF938A
:103B5000DF933C010E94701780910101813011F4C4
:103B600080E053C11BB897E097B918B88091C201A3
:103B70008AB980E480937B0084E480BF8091C8018F
:103B8000806480937C0090937A000E94D9341092D4
:103B9000800010928100109285001092840087E2CC
:103BA00086BB8091C2018BB9809101018F3129F4CC
:103BB0009091C5019095977002C09091C60181E0E7
:103BC0008093810097B900E010E091E086B3282F40
:103BD00085FD0AC080FFFACF96BBA8950F5F1F4FE7
:103BE0008CE00038180791F71092810080E286BBC4
:103BF000C0918600D09187001AB88091840090917E
:103C00008500C817D90730F420FF04C081E086BBC7
:103C10000F5F1F4F87E980937A0080917B008F7B35
:103C200080937B008091C8010E94DC142C011BB89A
:103C30008091C2018AB99CE00038190710F081E038
:103C4000E4C09E0140E050E0C801A0E0B0E08C017B
:103C5000FF24EE24E22AF32A042B152BA3E0EA1614
:103C6000F1040105110500F18EEF9FEFAFEFBFEFFB
:103C7000E80EF91E0A1F1B1F98E3E91699E8F906DA
:103C800091E4090790E0190778F0C801B70128EE20
:103C900033E040E050E00E943A35C901DA017C018E
:103CA0008D0197EF992E02C084EF982E8091D30159
:103CB000992787FD90952091970130919801820F67
:103CC000931F61E00E94D115A0E0B0E0BC01CD01DE
:103CD000A80197010E94E73420E436E040E050E07C
:103CE0000E943A3579018A01A4EF9A1619F057011A
:103CF000680114C08091D10190E0A0E0B0E0E81626
:103D0000F9060A071B0720F4AA24BB24650106C094
:103D100057016801A81AB90ACA0ADB0A8091BA01D8
:103D2000F30180838091B90181839282D301179638
:103D3000ED92FD920D931C931A97A382B482C582D3
:103D4000D682F4EF9F1651F420EAA21626E8B206B6
:103D500021E0C20620E0D20678F456C087EF98161C
:103D600009F052C091E2A9169EE4B90690E0C90696
:103D700090E0D90608F048C08091C8010E94DC1488
:103D8000855D9340C8F71AB8109295018091C801DB
:103D90000E94DC148C0181E0809395018091C80120
:103DA0000E94DC14EC018091C2018AB90C1B1D0B2E
:103DB000E0909701F0909801C80104960997D0F01F
:103DC000B801882777FD8095982F970140E050E053
:103DD0000E94E7349E0140E050E00E945C358091F3
:103DE000D201820F8093D2018A2D992787FD909569
:103DF000E80EF91E92012E193F09C901C1968336BA
:103E0000910510F42093D30183E0DF91CF911F91AE
:103E10000F91FF90EF90DF90CF90BF90AF909F9069
:103E20007F906F905F904F900895A0E0B0E0EBE13D
:103E3000FFE10C9479352C0183E0B82EB1E19B2E83
:103E40000E94701780910101813011F4882426C1ED
:103E500018B88091C60187B91BB81AB88091C801FB
:103E60000E94DC143C01EE24FF240894E11CF11CA8
:103E70008091BF01692D0E945F168091C8010E9448
:103E8000DC146816790618F0C0E0D0E003C0EC013D
:103E9000C619D7098EE7E816F10421F480E0CB3487
:103EA000D10508F081E091E0CC32D90708F080E03C
:103EB000E4EFEE16E1E0FE0609F480E0A895882321
:103EC000A1F6F1E0CC32DF0710F4BB24B39481E01B
:103ED000E816F10461F495E0C531D90740F0892D69
:103EE000A9E09A2E84FDACCFF2E08F2ED7C08B2CA8
:103EF000E3E0BE1619F000E010E038C0870180E072
:103F000090E009C0015010408091C8010E94DC146B
:103F100086199709A89501151105A1F78C179D071A
:103F200018F000E010E007C08E01081B190B0536E1
:103F3000110508F0BB248091C8010E94DC146C01BB
:103F400094FE03C00E94C53402C00E94CA3480910E
:103F5000C8010E94DC148C159D0520F08B2C662472
:103F6000772404C03601681A790A8B2CF3E0BF1657
:103F700009F094C0C8018C0F9D1F62E00E94D1150A
:103F8000A0E0B0E0970140E050E0BC01CD010E940C
:103F9000E7345B016C01C92DD0E08E010071107017
:103FA00094FE08C02AE030E040E050E00E94E73490
:103FB0005B016C0188E3A81689E8B80681E4C806AD
:103FC00080E0D80618F4E7EF9E2E0EC0C601B501BA
:103FD00028EE33E040E050E00E943A35C901DA01B2
:103FE0005C016D017AEF972EC601B50128EE33E032
:103FF00040E050E00E94E734012B29F022E434E055
:1040000040E050E004C020E134E040E050E00E9495
:104010003A35C901DA017C018D018091BA01F201C2
:1040200080838091B90181839282A782B086C18604
:10403000D286E382F482058316830DC0C801B701DE
:104040002AE030E040E050E00E943A35C901DA0150
:104050007C018D019394F1E0EF16F5E3FF06FCE09F
:104060000F07F0E01F0750F7C3FD9394930140E062
:1040700050E0C801B7010E94E73428EE33E040E089
:1040800050E00E943A35CA01B901492D28EF0E943B
:10409000F80DF2016387748785879687882DCDB7E1
:1040A000DEB7E0E10C949535A0E0B0E0EAE5F0E29F
:1040B0000C947F35B82EA62E8FE0489F6001112406
:1040C00081E491E0C80ED91EF6011082118284EFBE
:1040D00082831782108611861286138214821582BB
:1040E000168213861486158616868091010181300A
:1040F00009F462C08A3041F5FF24CCE0D1E01DC054
:1041000098819B1519F489818A1529F09A1599F4DB
:1041100089818B1581F46B817C818D819E814A819F
:104120000AE010E020E030E0EE240E94930D8F3F83
:1041300011F493E6F92EF394279680910501F81671
:10414000F8F2F4E6FF16C1F58B2D6A2D0E9433229A
:10415000FC01009729F0828193818C5D954060F18C
:104160008B2D6A2D40E00E945615C6010E94151F36
:10417000823019F4C6010E949A1D80910101843198
:10418000A8F4F60192818A3019F49A3F7CF00BC0B2
:10419000953F4CF4F60183819481A581B681059702
:1041A000A105B10518F08BE0809301010E94701702
:1041B00017B818B81AB81BB8CDB7DEB7EAE00C9438
:1041C0009B35A4E0B0E0E7EEF0E20C9477359C83F9
:1041D0008B83009709F440C1FC0163817481858160
:1041E000968142810AE010E020E030E057EFE52EB2
:1041F0000E94930D87FD30C10E94701780910101CC
:10420000813009F429C1EB81FC81808161810E94A8
:104210002118EB81FC818081618140E00E9456156C
:104220004090C8013090C901F0EC4F2A3F2A15BCDC
:1042300082E084BD85E687BD18B840927C000E946C
:10424000D034B1E0EB2EF12C012D112DA2E38A2EFA
:10425000912C60E070E022242A94F1E0AF2EB12C82
:10426000C12CD12CE7ED5E2EA8956233710558F470
:104270008091C60187B98091BF018BB98AB90E942C
:10428000E3341AB81BB882E38816910458F480917D
:10429000C50187B98091C0018BB98AB90E94E33406
:1042A0001AB81BB88091C50187B98091BF018BB93D
:1042B0008AB940927C0050927A0080917A0086FD03
:1042C000FCCF50927A0080917A0086FDFCCFE0917D
:1042D0007800F0917900FA83E98330927C00509263
:1042E0007A0080917A0086FDFCCF50927A000E947D
:1042F000DF340E94911D8091C0018BB98AB90E9460
:10430000E3341AB880917A0086FDFCCF8090780063
:10431000909079008091C60187B98091C0018BB9D6
:104320008AB930927C0050927A0080917A0086FDA2
:10433000FCCF50927A0080917A0086FDFCCF60908D
:1043400078007090790040927C0050927A008091C1
:104350007A0086FDFCCF50927A000E94DF340E94E2
:10436000911D8091BF018BB98AB90E94E3341AB8BC
:1043700080917A0086FDFCCF609178007091790081
:10438000C301A0E0B0E0E981FA819F0140E050E084
:10439000820F931FA41FB51FA80EB91ECA1EDB1ED5
:1043A000CB01A0E0B0E0940140E050E0820F931F09
:1043B000A41FB51FE80EF91E0A1F1B1F2A9409F03F
:1043C00053CF17B81BB8AE14BF04C006D106E0F532
:1043D0008091CB019091CC019C0173E0220F331F9F
:1043E0007A95E1F7880F991F280F391F40E050E0B8
:1043F000EA18FB080C091D09C801B7010E94E7343F
:10440000A60195010E943A35C9012091CF01309152
:10441000D0012817390720F48C01021B130B16C09A
:10442000EB81FC816381748185819681428108EEF4
:1044300013E020E030E05AEFE52E0E94930D1816AD
:104440001CF400E010E002C00FEF1FEF80EC80933F
:1044500096010E94701702C00FEF1FEFC80124964B
:10446000E2E10C949335282F90910601EEE6F1E0FD
:1044700008C08081281719F48181681731F09150A4
:1044800036969923B1F7E0E0F0E0CF0108958091EE
:10449000020180FF05C06091A3018091A20104C0C8
:1044A0006091A2018091A3010E943322892B49F0DF
:1044B0001092010110920201809103018E7F80937E
:1044C00003010895EF920F931F93809105018823B4
:1044D00009F07BC00E940A1B80910501813009F020
:1044E00074C060910F017091100180911101909141
:1044F000120140910E0108EB1BE020E030E0EE24B9
:104500000E94930D8130A1F460910F017091100110
:10451000809111019091120140910E0108E91AE376
:1045200020E030E00E94930D8F3F11F481E001C044
:1045300080E010920501882309F447C01BB88091E0
:10454000C0018AB98091C50188B987B98091C90134
:104550000E944D158C018091C1018BB99091C001D1
:10456000892B8AB98091C9010E944D159C010817B9
:10457000190758F5801B910B895E934030F18091AB
:104580000401843261F4809103018260809303010D
:10459000809131019091320128173907B0F084E2FF
:1045A000809304018DE080930B018091BB01809387
:1045B0002E018091B90180932F018091BA018093DF
:1045C000300130933201209331011F910F91EF9010
:1045D0000895A0E0B0E0EFEEF2E20C947F35B82E43
:1045E00021E08217E1F48091C50187B988B99091E3
:1045F000C1018091C001892B8AB99BB98091C90101
:104600000E944D15EC010091990110919A01809141
:10461000CA010E94DC149801281B390B1AC018B873
:104620008091C60187B98091BF018BB99091C1017A
:10463000892B8AB9C0919901D0919A018091C801C2
:104640000E944D15C81BD90B8091CA010E94DC1431
:104650009C012115310511F421E030E0CE01821BCF
:10466000930BB9010E9413356B01EE24FF24203116
:10467000310508F062C031E0B316D9F48091C4016D
:104680009091C001982B9AB98BB98091C9010E9471
:104690004D15EC010091990110919A018091CA0188
:1046A0000E94DC14081B190BA090CB01B090CC0128
:1046B00019C08091C4019091BF01892B8AB9C09122
:1046C0009901D0919A018091C8010E944D15C81B93
:1046D000D90B8091CA010E94DC148C01A090CD01FD
:1046E000B090CE010115110511F401E010E0BE01FA
:1046F00080E090E020EF3BE247E050E00E94E734AA
:10470000980140E050E00E943A35CA01B9012AE020
:1047100030E040E050E00E94E73420E93AE1A20EA8
:10472000B31E950140E050E00E943A35C216D30610
:10473000E406F50610F469017A01B601C701CDB7A8
:10474000DEB7EAE00C949B35DF92EF92FF920F9375
:104750001F93D82E1BB88091C0018AB98091C501E2
:1047600087B988B98091C9010E944D15BC01843078
:10477000910530F18091CB019091CC017C0100E05A
:1047800010E085E06937780780F091E0D91669F488
:104790001AB88091C6019091C501892B87B9809183
:1047A000C9010E94DC14BC0108C080E99AE1A0E0C4
:1047B000B0E0E80EF91E0A1F1B1F29EFD22E11C010
:1047C0008091C3018AB98091C9010E944D15BC0135
:1047D00098EFD92E80EFE82E8BE2F82E87E0082F95
:1047E000112D17B818B81AB81BB880E090E020EA6D
:1047F00036E841E050E00E94E734A80197010E94AA
:104800003A352093AF013093B0014093B1015093FA
:10481000B201D092B3011F910F91FF90EF90DF9002
:104820000895EF92FF920F931F93CF93DF938091A0
:10483000C8010E94DC14EC018091C9010E94DC14C3
:104840007C018091CA010E94DC148C0117B8809110
:10485000C50188B98091C4018BB99091C001892BA1
:104860008AB982E390E00E945D108091C50187B90A
:104870008091C9010E94DC140A97F8F483E28093C6
:1048800004018CE080930B018091BB0180932E0189
:104890008091B90180932F018091BA0180933001FA
:1048A000CE018E199F099093320180933101C01B74
:1048B000D10BD0933401C0933301CDB7DEB7E6E01E
:1048C0000C949F35A0E0B0E0E8E6F4E20C9481356A
:1048D0008091CA010E94DC147C018091C9010E9470
:1048E000DC146C018091C10160E10E945F1680912F
:1048F000C8010E944D158C011BB80E94D1348091D3
:10490000BF018BB98091C8010E944D1526E000348B
:10491000120708F05FC08153914108F45BC01AB8D8
:104920001BB88091C60188B90E94D1348091BF0123
:104930008AB98091C8010E944D15853F910508F004
:1049400049C08091C10160E10E945F168091C80159
:104950000E944D15EC0182E0CD3DD80760F482E263
:1049600080930101809103018160809303018AE0BB
:1049700080930A0135C08091BF018BB90E94D13468
:104980001BB88091C8010E944D15853F910510F517
:1049900080910101813229F480910301816080932B
:1049A000030181E2809301018BE080930A018091F1
:1049B000AB019091AC018C179D0720F5CE01A0E0D2
:1049C000B0E08093AB019093AC01A093AD01B093A4
:1049D000AE0106C080E0CDB7DEB7E8E00C949D35AF
:1049E0008091BB018093A1018091B9018093A201C4
:1049F0008091BA018093A301EC18FD08F092A60102
:104A0000E092A50181E0E7CFA0E0B0E0EAE0F5E2C6
:104A10000C947D358B5E914018F408E210E002C0E2
:104A200008EE11E08091C4019091C001892B8AB9F0
:104A30008091C9010E9444154C018091C4018BB939
:104A40008091C9010E9444155C01C401800F911F2F
:104A50008A159B0508F067C08091C1018AB98BB99E
:104A600018B88091C60187B98091CA010E94441587
:104A700017B8FF248C5B924010F4FF24F3948091CC
:104A8000C50187B98091CA010E944415EC0180914B
:104A9000C8010E94DC1417B88C179D0738F4C81B96
:104AA000D90BC25CD14010F4FF24F3948091C6016D
:104AB00088B987B98091C4019091BF01892B8AB9C7
:104AC0001BB88091C8010E9444156C018091C401FB
:104AD0008BB98091C8010E944415EC0118B88091EF
:104AE000C60187B98091C4019091BF01892B8AB911
:104AF0008BB98091CA010E94441588549F4028F0C8
:104B000089E18093020184E006C0FF2061F489E21C
:104B10008093020186E080930A01F501E819F90902
:104B2000CC19DD0966C018B88091C60187B980919B
:104B3000C4019091BF01892B8AB98BB98091C801BA
:104B40000E9444155C018091BF018BB98091C8011E
:104B50000E9444156C01080F191F0A151B0508F067
:104B6000FCC08091C1018AB91BB88091C60187B988
:104B700088B98091CA010E9444158C0118B88091AF
:104B8000C50187B98091C4019091C001892B8AB970
:104B90008BB98091C9010E9444157C018091C001AC
:104BA0008BB98091C9010E944415EC011BB880911A
:104BB000C50188B987B98091CA010E944415815DF9
:104BC000934028F48AE18093020185E009C080E1E6
:104BD0000D3C180708F0C1C08AE28093020187E00B
:104BE00080930A01F501EC19FD0997012C1B3D0B7F
:104BF000E9018FE18093010180910301816080933D
:104C000003014091BB014093A101CE17DF0738F4A7
:104C10008091B9018093A2018091BA0106C0809170
:104C2000BA018093A2018091B9018093A301CF01C1
:104C300062E370E00E9413359B01CF01861B970B46
:104C4000C817D90750F02E0F3F1F2C173D0728F02B
:104C5000809102018064809302018091A2016091A1
:104C6000A3010E9456159091C7018091C601982B0F
:104C700097B92091BF012AB98091020180FF13C02A
:104C800018B82BB90091990110919A018091C8012F
:104C90000E9444159801281B390BC901C091CD0110
:104CA000D091CE010AC098B91BB88091C8010E946A
:104CB0004415C091CB01D091CC01C057D54EBC0159
:104CC00080E090E020E137E240E050E00E94E734ED
:104CD0009E0140E050E00E943A352093AF013093AE
:104CE000B0014093B1015093B2018AEF8093B301B8
:104CF0009091C4018091C301982B9AB92091C5016C
:104D000027B98091020180FF03C01BB828B902C0F7
:104D10009BB918B80E94D0348091C9010E94DC145C
:104D20008C018091CA010E94DC149C01201B310B74
:104D30003093AA012093A9018091020180FF06C04F
:104D400020543D4E215C324140F003C0215C324191
:104D500020F01092AA011092A901CDB7DEB7ECE0C5
:104D60000C949935A0E0B0E0E8EBF6E20C947D35C8
:104D700090E0EC01C170D07080FF07C0C090BF010F
:104D80008091C50160E1A62E06C0C090C00180914F
:104D9000C60151E1A52E47E0B42EB8228091CA0188
:104DA000806480937C000E94DA34EE24FF24870123
:104DB000DD243FEF832E33E0932EA8958091C1012F
:104DC0006A2D0E945F168091C4018C298AB92097B0
:104DD00021F086B18B21E9F703C086B18B21E9F37D
:104DE000CAB880917A00806480937A0080917A00BA
:104DF00086FDFCCF209759F0809178009091790042
:104E0000A0E0B0E0E80EF91E0A1F1B1F0EC0809143
:104E10007800909179009401281B390BC901A0E01A
:104E2000B0E0E81AF90A0A0B1B0BD3943AE0D31648
:104E300021F6C801B7012AE030E040E050E00E94CE
:104E40005C35B901CA012091990130919A0140E085
:104E500050E00E94E73420E034E040E050E00E945F
:104E60005C353093A8012093A70180E480939601DC
:104E7000CDB7DEB7ECE00C949935A0E0B0E0E3E408
:104E8000F7E20C947D35982E5B010E94BF1541E03E
:104E9000941641F58091C4019091BF01892B8AB984
:104EA0008BB90E94CC34C0909901D0909A01809126
:104EB000C8010E94DC14C81AD90A00919901109106
:104EC0009A018091CA010E94DC14081B190BC09141
:104ED000CD01D091CE01FF24F3948DEF99E028E429
:104EE0003DE01AC08091C4019091C001892B8AB91C
:104EF0008091C9010E944D156C018091CA010E94E8
:104F0000DC148C01C091CB01D091CC01B2E0FB2E1E
:104F100081ED93E020ED37E08017910708F0DBC0CA
:104F2000809101018E31E9F490910201892D89234C
:104F300021F49460909302010EC051E0951659F44B
:104F40009091A2018091B901981729F490920101E2
:104F500082E08093020180910301816080930301CC
:104F600005C08EE18093010190920201AC14BD0452
:104F700010F4CA18DB08B60180E090E020EF3BE2B5
:104F800047E050E00E94E734980140E050E00E9482
:104F90003A35CA01B9012AE030E040E050E00E9411
:104FA000E734C057D54E9E0140E050E00E943A35AC
:104FB000C901DA015C016D01892D0E94E922A61662
:104FC000B706C806D90628F45B016C01A2E08A2E58
:104FD00002C088248394E090AB01F090AC01009172
:104FE000AD011091AE0181E0981629F48091BA01CB
:104FF0006091BB0104C08091BB016091B90140E0A8
:105000000E9454200E94B6158091020182FF1EC0AA
:105010006091B4017091B5018091B6019091B70192
:1050200000914401109145012091460130914701C2
:105030004091B801E09043010E94930D813009F442
:10504000EFC0892D84608093020106C0EA14FB043E
:105050000C051D0508F0E4C080E00E94A423A09286
:10506000AB01B092AC01C092AD01D092AE01809282
:10507000A4018091440190914501A0914601B09115
:1050800047018093B4019093B501A093B601B0930A
:10509000B701809143018093B8018091BB01809357
:1050A000A10141E0941659F48091B9018093A201C5
:1050B0008091BA018093A30110920A01B1C080913E
:1050C000BA018093A2018091B9018093A30181E08C
:1050D00080930A01A5C051E6A516B10408F0A0C04E
:1050E0002C153D0508F09CC08091C8010E94DC147D
:1050F0008C018091C9010E94DC14081B190B0A3F26
:10510000110508F044C08FE1809301018F2D846167
:105110008093020181E0F81641F46091CD01709115
:10512000CE016057754E82E007C06091CB0170914F
:10513000CC016057754E83E080930A0180E090E0D7
:105140009801F3E0220F331FFA95E1F7000F111FCA
:10515000200F311F40E050E00E94E734960140E00C
:1051600050E00E943A35C9012091CF013091D00121
:105170002817390718F020E030E004C0AC01421BCA
:10518000530B9A013093A6012093A5010FC080E232
:10519000809301018F2D84608093020151E0F51608
:1051A00011F488E001C089E080930A018F2D0E94EC
:1051B000B226809103018160809303019091BB012D
:1051C0009093A10181E0F81639F48091B9018093A0
:1051D000A2018091BA0106C08091BA018093A20118
:1051E0008091B9018093A301892F6091A30140E0D0
:1051F0000E9454208091440190914501A091460164
:10520000B09147018093B4019093B501A093B6018A
:10521000B093B701809143018093B8010E94B61505
:10522000CDB7DEB7ECE00C949935A0E0B0E0EBE14F
:10523000F9E20C947B35A8950E94701780910101CA
:10524000813009F4F3C018B88091C60187B9809104
:10525000C8010E94DC14782E692E8091C2018AB99F
:105260008BB98091C10161E10E945F168091C801F4
:105270000E944D15982E892E8091BF018AB98BB955
:105280008091C10161E10E945F168091C8010E9476
:105290004D155C018091C9010E94DC148C010E94B3
:1052A000701780910101813009F4C0C018B8809155
:1052B000C60187B98091C8010E94DC146C0117B83F
:1052C0008091C50188B987B91BB88091C3018AB99B
:1052D0008091C10160E10E945F168091C8010E9427
:1052E0004D15EC018091C9010E94DC14C817D90743
:1052F00018F4EE24FF2403C07E01E81AF90AE50140
:10530000C01BD10B8091C0018AB98091C10160E1BD
:105310000E945F168091C8010E944D158C018091FA
:10532000C9010E94DC14081B190B17B80C171D07C4
:1053300068F4AE01401B510B8E01292D382DC90197
:105340007C01272D362DC9016C0103C0A8014C1B1F
:105350005D0B495E534008F069C086E0E816F10431
:1053600008F464C0CE14DF0420F4C7018C199D0931
:1053700003C0C6018E199F0923E0C216D10420F094
:105380008436910508F452C088E2E816F10450F51D
:105390001BB88091C0018AB98091C50188B987B9CD
:1053A0008091C9010E944D15EC018091BF018AB91D
:1053B0008091C60188B987B98091C8010E944D15B6
:1053C000FC01CE0164E170E00E9413359B01CE0127
:1053D000861B970B8E179F0728F42C0F3D1FE21793
:1053E000F30720F1C8018759904089589141F0F4A2
:1053F00080910101882311F08A3019F484E18093AF
:10540000010190910601E6E09E9FF0011124E2590E
:10541000FE4F8091B90180838091BA01818313830B
:105420000283F582E4829F5F90930601CDB7DEB7D9
:10543000EEE00C9497358F929F92AF92BF92DF92DD
:10544000EF92FF920F931F93CF93DF934C01162F90
:10545000009709F4EDC00E9470178091010181301E
:1054600009F4E6C01BB818B8012F10E0A1E0AA2E7D
:10547000B12CA022B12200FF06C08091C0018AB9E0
:105480008091C50106C01AB88091C6019091C501EE
:10549000892B87B987E080937A0080E480937B0032
:1054A0008091C901806C80937C0084E480BF0E945D
:1054B000D534A8951092800010928100109285003A
:1054C0001092840087E286BBE801C470D07002FFAE
:1054D0000EC08091C50188B980E181500000882309
:1054E000E1F78091810081608093810008C0809104
:1054F00081008160809381008091C50188B960E05E
:1055000070E091E086B3E82F85FF03C0F3E0DF2E63
:1055100009C080FFF7CF96BB6F5F7F4F6034710586
:1055200089F7DD241092810080E286BB20918600FD
:10553000309187008091BF019091C001892B8AB979
:1055400017B880918400909185002817390730F4AE
:10555000E0FF04C081E086BB6F5F7F4F87E98093E7
:105560007A0080917B008F7B80937B00DD2009F4A3
:105570005BC040E050E0CB01A0E0B0E08C01FF2434
:10558000EE24E22AF32A042B152BCD2B11F484E010
:1055900009C02FE330E040E050E0E20EF31E041FAC
:1055A000151F83E0A114B10411F08D5F01C08F5F5E
:1055B000682F70E080E090E06E157F05800791070E
:1055C00028F060E070E080E090E008C0A80197015A
:1055D000261B370B480B590BCA01B90121E732E0F2
:1055E00040E050E00E94E7346B5F7F4F8F4F9F4F4A
:1055F0002AE030E040E050E00E943A35C901DA018B
:10560000F40180839183A283B383AB2831F0825E5F
:105610009440A040B04030F007C085369105A10508
:10562000B10510F482E0D82E80EC8093960101C081
:10563000DD248D2DDF91CF911F910F91FF90EF9081
:10564000DF90BF90AF909F908F900895A4E0B0E05E
:10565000ECE2FBE20C947D356C011092D6011092C5
:10566000D7011092D8011092D9011092DA01009757
:1056700009F425C1FC016381748185819681428191
:1056800000ED17E020E030E0EE240E94930D87FF4C
:1056900016C1F6018081618140E00E945615CE015D
:1056A000019665E00E941B2A833061F489819A810A
:1056B000AB81BC8189589341A040B04030F015E0E7
:1056C000B12E28C0882309F0FAC05E010894A11CFD
:1056D000B11CC50161E00E941B2A823019F0BB2475
:1056E000B39415C0F60163817481858196814281EE
:1056F00008E210E020E030E0EE240E94930D87FFE6
:10570000DEC0C50162E00E941B2AB2E0BB2E8330DE
:1057100009F0D5C0F601638174818581968142814B
:105720002FEF0E94F80D8B019C018091CF01909189
:10573000D001C090CB01D090CC01E090CD01F09091
:10574000CE01EC0CFD1C05966AE070E00E9413355A
:10575000E60EF71EE00EF11EB0FE20C080E99AE1D1
:10576000E80EF91EC80ED91E89819A81AB81BC81D1
:105770008037E7E19E07E0E0AE07E0E0BE0718F4FF
:10578000E0E5F0E01CC0845D9043A040B04018F01C
:10579000E7E3F0E014C0EDE2F0E011C089819A8106
:1057A00025E08C3D920718F4EAE0F0E008C0885844
:1057B000934118F0EEECFFEF02C0EBEFFFEF20910A
:1057C000D301332727FD309580919701909198015F
:1057D000280F391F40E050E0BF01882777FD8095F2
:1057E000982F620F731F841F951F4701AA24BB24A3
:1057F000A50194010E94E734960140E050E00E9428
:105800003A35CA01B90125E030E040E050E00E949D
:105810003A35DA01C90163E00E94D1157C01698142
:105820007A818B819C8117EF0FC06B5F7F4F8F4F09
:105830009F4F2AE030E040E050E00E943A35C90135
:10584000DA01BC01CD011F5F613AF6E87F07F1E0A4
:105850008F07F0E09F0748F7970140E050E00E9473
:10586000E7340FC06B5F7F4F8F4F9F4F2AE030E0D0
:1058700040E050E00E943A35C901DA01BC01CD0197
:105880001F5F613A26E8720721E0820720E0920755
:1058900048F7A50194010E94E7341093D60120E156
:1058A00037E240E050E00E943A352093D701309330
:1058B000D8014093D9015093DA0181E001C080E022
:1058C0002496ECE00C9499350F931F93182F062F14
:1058D0000E94CC15482F812F602F0E9456151BB8AF
:1058E0008091C0018AB98091C50187B988B980913A
:1058F000C9010E944D15815D934010F00E94152949
:105900001F910F910895A0E0B0E0E9E8FCE20C944B
:105910007A3583E0809321010E948A348BE591E0FF
:105920000E94791981E791E00E94351AFAE06F2E02
:10593000E9E15E2E76E4772E43C10E948A348BE53E
:1059400091E00E9479190E94CB19109201011092E6
:10595000060180E061E00E94642C81E060E00E942A
:10596000642C80E062E00E94642C82E060E00E948F
:10597000642C81E062E00E94642C82E061E00E947D
:10598000642C80910601813009F016C180916E016E
:1059900060916F010E94CC15482F80916E0160913B
:1059A0006F010E9456158091C60187B918B8909171
:1059B000C1018091BF01892B8AB99BB98091CA012D
:1059C0000E944D15815A9F40A8F18091BF018BB96B
:1059D0000E94D5348091C1019091BF01892B8BB970
:1059E0008091CA010E944D15EC018091C1018BB9D3
:1059F0008091CA010E944D15AC018FE0C13AD807D1
:105A0000C8F42FE0403A520710F084E614C09E011B
:105A100063E0369527956A95E1F7CE01821B930BDB
:105A20008417950738F42C0F3D1F4217530710F4C5
:105A300085E601C082E32091BF012AB9843609F0CE
:105A4000C8C09091C7018091C601892B87B998B9C8
:105A5000609294012BB90E94D5348091C8010E94B4
:105A6000DC148C018091C9010E94DC144C011BB82C
:105A7000509294016091990170919A01601B710B91
:105A800080E090E020E137E240E050E00E94E7341F
:105A9000A090CB01B090CC012091CD013091CE01EE
:105AA0002057354E40E050E00E943A356901EE241F
:105AB000FF248091C60187B918B89091C1018091E7
:105AC000BF01892B8AB99BB98091CA010E944D15EB
:105AD0008C018FE0013A180708F47EC03091C701AD
